{
  "_format": "hh-sol-artifact-1",
  "contractName": "VerifyVoucher",
  "sourceName": "contracts/Voucher.sol",
  "abi": [
    {
      "inputs": [],
      "stateMutability": "nonpayable",
      "type": "constructor"
    },
    {
      "anonymous": false,
      "inputs": [
        {
          "indexed": false,
          "internalType": "address",
          "name": "previousAdmin",
          "type": "address"
        },
        {
          "indexed": false,
          "internalType": "address",
          "name": "newAdmin",
          "type": "address"
        }
      ],
      "name": "AdminChanged",
      "type": "event"
    },
    {
      "anonymous": false,
      "inputs": [
        {
          "indexed": true,
          "internalType": "address",
          "name": "beacon",
          "type": "address"
        }
      ],
      "name": "BeaconUpgraded",
      "type": "event"
    },
    {
      "anonymous": false,
      "inputs": [
        {
          "indexed": false,
          "internalType": "string",
          "name": "msg",
          "type": "string"
        }
      ],
      "name": "FallingBack",
      "type": "event"
    },
    {
      "anonymous": false,
      "inputs": [
        {
          "indexed": false,
          "internalType": "uint8",
          "name": "version",
          "type": "uint8"
        }
      ],
      "name": "Initialized",
      "type": "event"
    },
    {
      "anonymous": false,
      "inputs": [
        {
          "indexed": true,
          "internalType": "address",
          "name": "previousOwner",
          "type": "address"
        },
        {
          "indexed": true,
          "internalType": "address",
          "name": "newOwner",
          "type": "address"
        }
      ],
      "name": "OwnershipTransferred",
      "type": "event"
    },
    {
      "anonymous": false,
      "inputs": [
        {
          "indexed": true,
          "internalType": "address",
          "name": "implementation",
          "type": "address"
        }
      ],
      "name": "Upgraded",
      "type": "event"
    },
    {
      "stateMutability": "nonpayable",
      "type": "fallback"
    },
    {
      "inputs": [
        {
          "components": [
            {
              "internalType": "string",
              "name": "content",
              "type": "string"
            },
            {
              "internalType": "string",
              "name": "tokenUri",
              "type": "string"
            },
            {
              "internalType": "bytes",
              "name": "signature",
              "type": "bytes"
            }
          ],
          "internalType": "struct VerifyVoucher.Voucher",
          "name": "_voucher",
          "type": "tuple"
        }
      ],
      "name": "_verify",
      "outputs": [
        {
          "internalType": "address",
          "name": "",
          "type": "address"
        }
      ],
      "stateMutability": "view",
      "type": "function"
    },
    {
      "inputs": [],
      "name": "getChainID",
      "outputs": [
        {
          "internalType": "uint256",
          "name": "",
          "type": "uint256"
        }
      ],
      "stateMutability": "view",
      "type": "function"
    },
    {
      "inputs": [],
      "name": "initialize",
      "outputs": [],
      "stateMutability": "nonpayable",
      "type": "function"
    },
    {
      "inputs": [],
      "name": "owner",
      "outputs": [
        {
          "internalType": "address",
          "name": "",
          "type": "address"
        }
      ],
      "stateMutability": "view",
      "type": "function"
    },
    {
      "inputs": [],
      "name": "proxiableUUID",
      "outputs": [
        {
          "internalType": "bytes32",
          "name": "",
          "type": "bytes32"
        }
      ],
      "stateMutability": "view",
      "type": "function"
    },
    {
      "inputs": [],
      "name": "renounceOwnership",
      "outputs": [],
      "stateMutability": "nonpayable",
      "type": "function"
    },
    {
      "inputs": [
        {
          "internalType": "address",
          "name": "newOwner",
          "type": "address"
        }
      ],
      "name": "transferOwnership",
      "outputs": [],
      "stateMutability": "nonpayable",
      "type": "function"
    },
    {
      "inputs": [
        {
          "internalType": "address",
          "name": "newImplementation",
          "type": "address"
        }
      ],
      "name": "upgradeTo",
      "outputs": [],
      "stateMutability": "nonpayable",
      "type": "function"
    },
    {
      "inputs": [
        {
          "internalType": "address",
          "name": "newImplementation",
          "type": "address"
        },
        {
          "internalType": "bytes",
          "name": "data",
          "type": "bytes"
        }
      ],
      "name": "upgradeToAndCall",
      "outputs": [],
      "stateMutability": "payable",
      "type": "function"
    }
  ],
  "bytecode": "0x60a06040523060805234801561001457600080fd5b5061001d610022565b6100e2565b600054610100900460ff161561008e5760405162461bcd60e51b815260206004820152602760248201527f496e697469616c697a61626c653a20636f6e747261637420697320696e697469604482015266616c697a696e6760c81b606482015260840160405180910390fd5b60005460ff90811610156100e0576000805460ff191660ff9081179091556040519081527f7f26b83ff96e1f2b6a682f133852f6798a09c465da95921460cefb38474024989060200160405180910390a15b565b60805161163461011960003960008181610227015281816102b1015281816103a80152818161042d015261051701526116346000f3fe6080604052600436106100965760003560e01c8063715018a6116100695780638129fc1c1161004e5780638129fc1c146101c95780638da5cb5b146101de578063f2fde38b146101fc57610096565b8063715018a61461017c5780637cb048d61461019157610096565b80633659cfe61461010c5780634f1ef2861461012e57806352d1902d14610141578063564b81ef14610169575b3480156100a257600080fd5b507f206c3a4747cc015c67ea08c7121dfc4e67a3fd32aa695153c0be7feadd9b415b604051610102906020808252600f908201527f53746f72652046616c6c204261636b0000000000000000000000000000000000604082015260600190565b60405180910390a1005b34801561011857600080fd5b5061012c610127366004611382565b61021c565b005b61012c61013c3660046113b3565b61039d565b34801561014d57600080fd5b5061015661050a565b6040519081526020015b60405180910390f35b34801561017557600080fd5b5046610156565b34801561018857600080fd5b5061012c6105cf565b34801561019d57600080fd5b506101b16101ac366004611475565b6105e3565b6040516001600160a01b039091168152602001610160565b3480156101d557600080fd5b5061012c610643565b3480156101ea57600080fd5b506033546001600160a01b03166101b1565b34801561020857600080fd5b5061012c610217366004611382565b6107ce565b306001600160a01b037f00000000000000000000000000000000000000000000000000000000000000001614156102af5760405162461bcd60e51b815260206004820152602c60248201527f46756e6374696f6e206d7573742062652063616c6c6564207468726f7567682060448201526b19195b1959d85d1958d85b1b60a21b60648201526084015b60405180910390fd5b7f00000000000000000000000000000000000000000000000000000000000000006001600160a01b031661030a7f360894a13ba1a3210667c828492db98dca3e2076cc3735a920a3ca505d382bbc546001600160a01b031690565b6001600160a01b0316146103755760405162461bcd60e51b815260206004820152602c60248201527f46756e6374696f6e206d7573742062652063616c6c6564207468726f7567682060448201526b6163746976652070726f787960a01b60648201526084016102a6565b61037e8161085b565b6040805160008082526020820190925261039a91839190610863565b50565b306001600160a01b037f000000000000000000000000000000000000000000000000000000000000000016141561042b5760405162461bcd60e51b815260206004820152602c60248201527f46756e6374696f6e206d7573742062652063616c6c6564207468726f7567682060448201526b19195b1959d85d1958d85b1b60a21b60648201526084016102a6565b7f00000000000000000000000000000000000000000000000000000000000000006001600160a01b03166104867f360894a13ba1a3210667c828492db98dca3e2076cc3735a920a3ca505d382bbc546001600160a01b031690565b6001600160a01b0316146104f15760405162461bcd60e51b815260206004820152602c60248201527f46756e6374696f6e206d7573742062652063616c6c6564207468726f7567682060448201526b6163746976652070726f787960a01b60648201526084016102a6565b6104fa8261085b565b61050682826001610863565b5050565b6000306001600160a01b037f000000000000000000000000000000000000000000000000000000000000000016146105aa5760405162461bcd60e51b815260206004820152603860248201527f555550535570677261646561626c653a206d757374206e6f742062652063616c60448201527f6c6564207468726f7567682064656c656761746563616c6c000000000000000060648201526084016102a6565b507f360894a13ba1a3210667c828492db98dca3e2076cc3735a920a3ca505d382bbc90565b6105d7610a17565b6105e16000610a71565b565b6000806105ef83610ad0565b905061063c8161060260408601866114b0565b8080601f016020809104026020016040519081016040528093929190818152602001838380828437600092019190915250610b7b92505050565b9392505050565b600054610100900460ff16158080156106635750600054600160ff909116105b8061067d5750303b15801561067d575060005460ff166001145b6106ef5760405162461bcd60e51b815260206004820152602e60248201527f496e697469616c697a61626c653a20636f6e747261637420697320616c72656160448201527f647920696e697469616c697a656400000000000000000000000000000000000060648201526084016102a6565b6000805460ff191660011790558015610712576000805461ff0019166101001790555b6107866040518060400160405280600381526020017f494f5500000000000000000000000000000000000000000000000000000000008152506040518060400160405280600181526020017f3100000000000000000000000000000000000000000000000000000000000000815250610b9f565b801561039a576000805461ff0019169055604051600181527f7f26b83ff96e1f2b6a682f133852f6798a09c465da95921460cefb38474024989060200160405180910390a150565b6107d6610a17565b6001600160a01b0381166108525760405162461bcd60e51b815260206004820152602660248201527f4f776e61626c653a206e6577206f776e657220697320746865207a65726f206160448201527f646472657373000000000000000000000000000000000000000000000000000060648201526084016102a6565b61039a81610a71565b61039a610a17565b7f4910fdfa16fed3260ed0e7147f7cc6da11a60208b5b9406d12a635614ffd91435460ff161561089b5761089683610c14565b505050565b826001600160a01b03166352d1902d6040518163ffffffff1660e01b815260040160206040518083038186803b1580156108d457600080fd5b505afa925050508015610904575060408051601f3d908101601f19168201909252610901918101906114f7565b60015b6109765760405162461bcd60e51b815260206004820152602e60248201527f45524331393637557067726164653a206e657720696d706c656d656e7461746960448201527f6f6e206973206e6f74205555505300000000000000000000000000000000000060648201526084016102a6565b7f360894a13ba1a3210667c828492db98dca3e2076cc3735a920a3ca505d382bbc8114610a0b5760405162461bcd60e51b815260206004820152602960248201527f45524331393637557067726164653a20756e737570706f727465642070726f7860448201527f6961626c6555554944000000000000000000000000000000000000000000000060648201526084016102a6565b50610896838383610cdf565b6033546001600160a01b031633146105e15760405162461bcd60e51b815260206004820181905260248201527f4f776e61626c653a2063616c6c6572206973206e6f7420746865206f776e657260448201526064016102a6565b603380546001600160a01b0383811673ffffffffffffffffffffffffffffffffffffffff19831681179093556040519116919082907f8be0079c531659141344cd1fd0a4f28419497f9722a3daafe3b4186f6b6457e090600090a35050565b6000610b757f496f7abee366a4f06ffa6c28e019bea467cb362e32db0a844debc573d2d4889a610b0360208501856114b0565b604051610b11929190611510565b604051908190039020610b2485806114b0565b604051610b32929190611510565b604051908190038120610b5a9392916020019283526020830191909152604082015260600190565b60405160208183030381529060405280519060200120610d0a565b92915050565b6000806000610b8a8585610d73565b91509150610b9781610de3565b509392505050565b600054610100900460ff16610c0a5760405162461bcd60e51b815260206004820152602b60248201527f496e697469616c697a61626c653a20636f6e7472616374206973206e6f74206960448201526a6e697469616c697a696e6760a81b60648201526084016102a6565b6105068282610f9e565b6001600160a01b0381163b610c915760405162461bcd60e51b815260206004820152602d60248201527f455243313936373a206e657720696d706c656d656e746174696f6e206973206e60448201527f6f74206120636f6e74726163740000000000000000000000000000000000000060648201526084016102a6565b7f360894a13ba1a3210667c828492db98dca3e2076cc3735a920a3ca505d382bbc805473ffffffffffffffffffffffffffffffffffffffff19166001600160a01b0392909216919091179055565b610ce883611023565b600082511180610cf55750805b1561089657610d048383611063565b50505050565b6000610b75610d1761116e565b836040517f19010000000000000000000000000000000000000000000000000000000000006020820152602281018390526042810182905260009060620160405160208183030381529060405280519060200120905092915050565b600080825160411415610daa5760208301516040840151606085015160001a610d9e878285856111ee565b94509450505050610ddc565b825160401415610dd45760208301516040840151610dc98683836112db565b935093505050610ddc565b506000905060025b9250929050565b6000816004811115610df757610df7611520565b1415610e005750565b6001816004811115610e1457610e14611520565b1415610e625760405162461bcd60e51b815260206004820152601860248201527f45434453413a20696e76616c6964207369676e6174757265000000000000000060448201526064016102a6565b6002816004811115610e7657610e76611520565b1415610ec45760405162461bcd60e51b815260206004820152601f60248201527f45434453413a20696e76616c6964207369676e6174757265206c656e6774680060448201526064016102a6565b6003816004811115610ed857610ed8611520565b1415610f315760405162461bcd60e51b815260206004820152602260248201527f45434453413a20696e76616c6964207369676e6174757265202773272076616c604482015261756560f01b60648201526084016102a6565b6004816004811115610f4557610f45611520565b141561039a5760405162461bcd60e51b815260206004820152602260248201527f45434453413a20696e76616c6964207369676e6174757265202776272076616c604482015261756560f01b60648201526084016102a6565b600054610100900460ff166110095760405162461bcd60e51b815260206004820152602b60248201527f496e697469616c697a61626c653a20636f6e7472616374206973206e6f74206960448201526a6e697469616c697a696e6760a81b60648201526084016102a6565b815160209283012081519190920120606591909155606655565b61102c81610c14565b6040516001600160a01b038216907fbc7cd75a20ee27fd9adebab32041f755214dbc6bffa90cc0225b39da2e5c2d3b90600090a250565b60606001600160a01b0383163b6110e25760405162461bcd60e51b815260206004820152602660248201527f416464726573733a2064656c65676174652063616c6c20746f206e6f6e2d636f60448201527f6e7472616374000000000000000000000000000000000000000000000000000060648201526084016102a6565b600080846001600160a01b0316846040516110fd9190611562565b600060405180830381855af49150503d8060008114611138576040519150601f19603f3d011682016040523d82523d6000602084013e61113d565b606091505b509150915061116582826040518060600160405280602781526020016115d86027913961132d565b95945050505050565b60006111e97f8b73c3c69bb8fe3d512ecc4cf759cc79239f7b179b0ffacaa9a75d522b39400f61119d60655490565b6066546040805160208101859052908101839052606081018290524660808201523060a082015260009060c0016040516020818303038152906040528051906020012090509392505050565b905090565b6000807f7fffffffffffffffffffffffffffffff5d576e7357a4501ddfe92f46681b20a083111561122557506000905060036112d2565b8460ff16601b1415801561123d57508460ff16601c14155b1561124e57506000905060046112d2565b6040805160008082526020820180845289905260ff881692820192909252606081018690526080810185905260019060a0016020604051602081039080840390855afa1580156112a2573d6000803e3d6000fd5b5050604051601f1901519150506001600160a01b0381166112cb576000600192509250506112d2565b9150600090505b94509492505050565b6000807f7fffffffffffffffffffffffffffffffffffffffffffffffffffffffffffffff83168161131160ff86901c601b61157e565b905061131f878288856111ee565b935093505050935093915050565b6060831561133c57508161063c565b82511561134c5782518084602001fd5b8160405162461bcd60e51b81526004016102a691906115a4565b80356001600160a01b038116811461137d57600080fd5b919050565b60006020828403121561139457600080fd5b61063c82611366565b634e487b7160e01b600052604160045260246000fd5b600080604083850312156113c657600080fd5b6113cf83611366565b9150602083013567ffffffffffffffff808211156113ec57600080fd5b818501915085601f83011261140057600080fd5b8135818111156114125761141261139d565b604051601f8201601f19908116603f0116810190838211818310171561143a5761143a61139d565b8160405282815288602084870101111561145357600080fd5b8260208601602083013760006020848301015280955050505050509250929050565b60006020828403121561148757600080fd5b813567ffffffffffffffff81111561149e57600080fd5b82016060818503121561063c57600080fd5b6000808335601e198436030181126114c757600080fd5b83018035915067ffffffffffffffff8211156114e257600080fd5b602001915036819003821315610ddc57600080fd5b60006020828403121561150957600080fd5b5051919050565b8183823760009101908152919050565b634e487b7160e01b600052602160045260246000fd5b60005b83811015611551578181015183820152602001611539565b83811115610d045750506000910152565b60008251611574818460208701611536565b9190910192915050565b6000821982111561159f57634e487b7160e01b600052601160045260246000fd5b500190565b60208152600082518060208401526115c3816040850160208701611536565b601f01601f1916919091016040019291505056fe416464726573733a206c6f772d6c6576656c2064656c65676174652063616c6c206661696c6564a264697066735822122057e2a0f43669a3104b3b1a53d0633773608a9cbdbad6a6ee111c29850120b49664736f6c63430008090033",
  "linkReferences": {},
  "deployedLinkReferences": {}
}