{
  "_format": "hh-sol-artifact-1",
  "contractName": "TheToken",
  "sourceName": "contracts/TheToken.sol",
  "abi": [
    {
      "inputs": [],
      "stateMutability": "nonpayable",
      "type": "constructor"
    },
    {
      "anonymous": false,
      "inputs": [
        {
          "indexed": false,
          "internalType": "address",
          "name": "previousAdmin",
          "type": "address"
        },
        {
          "indexed": false,
          "internalType": "address",
          "name": "newAdmin",
          "type": "address"
        }
      ],
      "name": "AdminChanged",
      "type": "event"
    },
    {
      "anonymous": false,
      "inputs": [
        {
          "indexed": true,
          "internalType": "address",
          "name": "owner",
          "type": "address"
        },
        {
          "indexed": true,
          "internalType": "address",
          "name": "approved",
          "type": "address"
        },
        {
          "indexed": true,
          "internalType": "uint256",
          "name": "tokenId",
          "type": "uint256"
        }
      ],
      "name": "Approval",
      "type": "event"
    },
    {
      "anonymous": false,
      "inputs": [
        {
          "indexed": true,
          "internalType": "address",
          "name": "owner",
          "type": "address"
        },
        {
          "indexed": true,
          "internalType": "address",
          "name": "operator",
          "type": "address"
        },
        {
          "indexed": false,
          "internalType": "bool",
          "name": "approved",
          "type": "bool"
        }
      ],
      "name": "ApprovalForAll",
      "type": "event"
    },
    {
      "anonymous": false,
      "inputs": [
        {
          "indexed": true,
          "internalType": "address",
          "name": "beacon",
          "type": "address"
        }
      ],
      "name": "BeaconUpgraded",
      "type": "event"
    },
    {
      "anonymous": false,
      "inputs": [
        {
          "indexed": false,
          "internalType": "uint8",
          "name": "version",
          "type": "uint8"
        }
      ],
      "name": "Initialized",
      "type": "event"
    },
    {
      "anonymous": false,
      "inputs": [
        {
          "indexed": true,
          "internalType": "address",
          "name": "previousOwner",
          "type": "address"
        },
        {
          "indexed": true,
          "internalType": "address",
          "name": "newOwner",
          "type": "address"
        }
      ],
      "name": "OwnershipTransferred",
      "type": "event"
    },
    {
      "anonymous": false,
      "inputs": [
        {
          "indexed": true,
          "internalType": "address",
          "name": "from",
          "type": "address"
        },
        {
          "indexed": true,
          "internalType": "address",
          "name": "to",
          "type": "address"
        },
        {
          "indexed": true,
          "internalType": "uint256",
          "name": "tokenId",
          "type": "uint256"
        }
      ],
      "name": "Transfer",
      "type": "event"
    },
    {
      "anonymous": false,
      "inputs": [
        {
          "indexed": true,
          "internalType": "address",
          "name": "implementation",
          "type": "address"
        }
      ],
      "name": "Upgraded",
      "type": "event"
    },
    {
      "inputs": [
        {
          "internalType": "address",
          "name": "to",
          "type": "address"
        },
        {
          "internalType": "string",
          "name": "uri",
          "type": "string"
        },
        {
          "components": [
            {
              "internalType": "string",
              "name": "tokenUri",
              "type": "string"
            },
            {
              "internalType": "string",
              "name": "content",
              "type": "string"
            },
            {
              "internalType": "bytes",
              "name": "signature",
              "type": "bytes"
            }
          ],
          "internalType": "struct Voucher",
          "name": "_voucher",
          "type": "tuple"
        }
      ],
      "name": "_safeMint",
      "outputs": [
        {
          "internalType": "uint256",
          "name": "",
          "type": "uint256"
        }
      ],
      "stateMutability": "nonpayable",
      "type": "function"
    },
    {
      "inputs": [
        {
          "internalType": "address",
          "name": "to",
          "type": "address"
        },
        {
          "internalType": "uint256",
          "name": "tokenId",
          "type": "uint256"
        }
      ],
      "name": "approve",
      "outputs": [],
      "stateMutability": "nonpayable",
      "type": "function"
    },
    {
      "inputs": [
        {
          "internalType": "address",
          "name": "owner",
          "type": "address"
        }
      ],
      "name": "balanceOf",
      "outputs": [
        {
          "internalType": "uint256",
          "name": "",
          "type": "uint256"
        }
      ],
      "stateMutability": "view",
      "type": "function"
    },
    {
      "inputs": [
        {
          "internalType": "uint256",
          "name": "tokenId",
          "type": "uint256"
        }
      ],
      "name": "burn",
      "outputs": [],
      "stateMutability": "nonpayable",
      "type": "function"
    },
    {
      "inputs": [
        {
          "internalType": "uint256",
          "name": "tokenId",
          "type": "uint256"
        }
      ],
      "name": "getApproved",
      "outputs": [
        {
          "internalType": "address",
          "name": "",
          "type": "address"
        }
      ],
      "stateMutability": "view",
      "type": "function"
    },
    {
      "inputs": [
        {
          "internalType": "address",
          "name": "voucherContract",
          "type": "address"
        }
      ],
      "name": "initialize",
      "outputs": [],
      "stateMutability": "nonpayable",
      "type": "function"
    },
    {
      "inputs": [
        {
          "internalType": "address",
          "name": "owner",
          "type": "address"
        },
        {
          "internalType": "address",
          "name": "operator",
          "type": "address"
        }
      ],
      "name": "isApprovedForAll",
      "outputs": [
        {
          "internalType": "bool",
          "name": "",
          "type": "bool"
        }
      ],
      "stateMutability": "view",
      "type": "function"
    },
    {
      "inputs": [],
      "name": "name",
      "outputs": [
        {
          "internalType": "string",
          "name": "",
          "type": "string"
        }
      ],
      "stateMutability": "view",
      "type": "function"
    },
    {
      "inputs": [],
      "name": "owner",
      "outputs": [
        {
          "internalType": "address",
          "name": "",
          "type": "address"
        }
      ],
      "stateMutability": "view",
      "type": "function"
    },
    {
      "inputs": [
        {
          "internalType": "uint256",
          "name": "tokenId",
          "type": "uint256"
        }
      ],
      "name": "ownerOf",
      "outputs": [
        {
          "internalType": "address",
          "name": "",
          "type": "address"
        }
      ],
      "stateMutability": "view",
      "type": "function"
    },
    {
      "inputs": [],
      "name": "proxiableUUID",
      "outputs": [
        {
          "internalType": "bytes32",
          "name": "",
          "type": "bytes32"
        }
      ],
      "stateMutability": "view",
      "type": "function"
    },
    {
      "inputs": [],
      "name": "renounceOwnership",
      "outputs": [],
      "stateMutability": "nonpayable",
      "type": "function"
    },
    {
      "inputs": [
        {
          "internalType": "address",
          "name": "from",
          "type": "address"
        },
        {
          "internalType": "address",
          "name": "to",
          "type": "address"
        },
        {
          "internalType": "uint256",
          "name": "tokenId",
          "type": "uint256"
        }
      ],
      "name": "safeTransferFrom",
      "outputs": [],
      "stateMutability": "nonpayable",
      "type": "function"
    },
    {
      "inputs": [
        {
          "internalType": "address",
          "name": "from",
          "type": "address"
        },
        {
          "internalType": "address",
          "name": "to",
          "type": "address"
        },
        {
          "internalType": "uint256",
          "name": "tokenId",
          "type": "uint256"
        },
        {
          "internalType": "bytes",
          "name": "data",
          "type": "bytes"
        }
      ],
      "name": "safeTransferFrom",
      "outputs": [],
      "stateMutability": "nonpayable",
      "type": "function"
    },
    {
      "inputs": [
        {
          "internalType": "address",
          "name": "operator",
          "type": "address"
        },
        {
          "internalType": "bool",
          "name": "approved",
          "type": "bool"
        }
      ],
      "name": "setApprovalForAll",
      "outputs": [],
      "stateMutability": "nonpayable",
      "type": "function"
    },
    {
      "inputs": [
        {
          "internalType": "bytes4",
          "name": "interfaceId",
          "type": "bytes4"
        }
      ],
      "name": "supportsInterface",
      "outputs": [
        {
          "internalType": "bool",
          "name": "",
          "type": "bool"
        }
      ],
      "stateMutability": "view",
      "type": "function"
    },
    {
      "inputs": [],
      "name": "symbol",
      "outputs": [
        {
          "internalType": "string",
          "name": "",
          "type": "string"
        }
      ],
      "stateMutability": "view",
      "type": "function"
    },
    {
      "inputs": [
        {
          "internalType": "uint256",
          "name": "tokenId",
          "type": "uint256"
        }
      ],
      "name": "tokenURI",
      "outputs": [
        {
          "internalType": "string",
          "name": "",
          "type": "string"
        }
      ],
      "stateMutability": "view",
      "type": "function"
    },
    {
      "inputs": [
        {
          "internalType": "address",
          "name": "from",
          "type": "address"
        },
        {
          "internalType": "address",
          "name": "to",
          "type": "address"
        },
        {
          "internalType": "uint256",
          "name": "tokenId",
          "type": "uint256"
        }
      ],
      "name": "transferFrom",
      "outputs": [],
      "stateMutability": "nonpayable",
      "type": "function"
    },
    {
      "inputs": [
        {
          "internalType": "address",
          "name": "newOwner",
          "type": "address"
        }
      ],
      "name": "transferOwnership",
      "outputs": [],
      "stateMutability": "nonpayable",
      "type": "function"
    },
    {
      "inputs": [
        {
          "internalType": "address",
          "name": "newImplementation",
          "type": "address"
        }
      ],
      "name": "upgradeTo",
      "outputs": [],
      "stateMutability": "nonpayable",
      "type": "function"
    },
    {
      "inputs": [
        {
          "internalType": "address",
          "name": "newImplementation",
          "type": "address"
        },
        {
          "internalType": "bytes",
          "name": "data",
          "type": "bytes"
        }
      ],
      "name": "upgradeToAndCall",
      "outputs": [],
      "stateMutability": "payable",
      "type": "function"
    },
    {
      "inputs": [],
      "name": "voucherAddress",
      "outputs": [
        {
          "internalType": "address",
          "name": "",
          "type": "address"
        }
      ],
      "stateMutability": "view",
      "type": "function"
    }
  ],
  "bytecode": "0x60a0604052306080523480156200001557600080fd5b506200002062000026565b620000e8565b600054610100900460ff1615620000935760405162461bcd60e51b815260206004820152602760248201527f496e697469616c697a61626c653a20636f6e747261637420697320696e697469604482015266616c697a696e6760c81b606482015260840160405180910390fd5b60005460ff9081161015620000e6576000805460ff191660ff9081179091556040519081527f7f26b83ff96e1f2b6a682f133852f6798a09c465da95921460cefb38474024989060200160405180910390a15b565b608051612bc862000120600039600081816107af01528181610834015281816109bb01528181610a400152610b2a0152612bc86000f3fe6080604052600436106101805760003560e01c80636352211e116100d6578063b88d4fde1161007f578063e985e9c511610059578063e985e9c514610415578063f2fde38b1461045e578063f97f21e01461047e57600080fd5b8063b88d4fde146103b5578063c4d66de8146103d5578063c87b56dd146103f557600080fd5b80638da5cb5b116100b05780638da5cb5b1461036257806395d89b4114610380578063a22cb4651461039557600080fd5b80636352211e1461030d57806370a082311461032d578063715018a61461034d57600080fd5b806323b872dd1161013857806342966c681161011257806342966c68146102b75780634f1ef286146102d757806352d1902d146102ea57600080fd5b806323b872dd146102575780633659cfe61461027757806342842e0e1461029757600080fd5b8063081812fc11610169578063081812fc146101dc578063095ea7b314610214578063100575b21461023657600080fd5b806301ffc9a71461018557806306fdde03146101ba575b600080fd5b34801561019157600080fd5b506101a56101a036600461250e565b61049e565b60405190151581526020015b60405180910390f35b3480156101c657600080fd5b506101cf61053b565b6040516101b19190612583565b3480156101e857600080fd5b506101fc6101f7366004612596565b6105cd565b6040516001600160a01b0390911681526020016101b1565b34801561022057600080fd5b5061023461022f3660046125c4565b6105f4565b005b34801561024257600080fd5b50610192546101fc906001600160a01b031681565b34801561026357600080fd5b506102346102723660046125f0565b61072b565b34801561028357600080fd5b50610234610292366004612631565b6107a4565b3480156102a357600080fd5b506102346102b23660046125f0565b610920565b3480156102c357600080fd5b506102346102d2366004612596565b61093b565b6102346102e53660046126fa565b6109b0565b3480156102f657600080fd5b506102ff610b1d565b6040519081526020016101b1565b34801561031957600080fd5b506101fc610328366004612596565b610be2565b34801561033957600080fd5b506102ff610348366004612631565b610c47565b34801561035957600080fd5b50610234610ce1565b34801561036e57600080fd5b5060fb546001600160a01b03166101fc565b34801561038c57600080fd5b506101cf610cf5565b3480156103a157600080fd5b506102346103b036600461274a565b610d04565b3480156103c157600080fd5b506102346103d0366004612788565b610d0f565b3480156103e157600080fd5b506102346103f0366004612631565b610d8e565b34801561040157600080fd5b506101cf610410366004612596565b610f56565b34801561042157600080fd5b506101a56104303660046127f4565b6001600160a01b039182166000908152606a6020908152604080832093909416825291909152205460ff1690565b34801561046a57600080fd5b50610234610479366004612631565b610f61565b34801561048a57600080fd5b506102ff610499366004612822565b610fee565b60006001600160e01b031982167f80ac58cd00000000000000000000000000000000000000000000000000000000148061050157506001600160e01b031982167f5b5e139f00000000000000000000000000000000000000000000000000000000145b8061053557507f01ffc9a7000000000000000000000000000000000000000000000000000000006001600160e01b03198316145b92915050565b60606065805461054a906128b6565b80601f0160208091040260200160405190810160405280929190818152602001828054610576906128b6565b80156105c35780601f10610598576101008083540402835291602001916105c3565b820191906000526020600020905b8154815290600101906020018083116105a657829003601f168201915b5050505050905090565b60006105d88261112e565b506000908152606960205260409020546001600160a01b031690565b60006105ff82610be2565b9050806001600160a01b0316836001600160a01b0316141561068e5760405162461bcd60e51b815260206004820152602160248201527f4552433732313a20617070726f76616c20746f2063757272656e74206f776e6560448201527f720000000000000000000000000000000000000000000000000000000000000060648201526084015b60405180910390fd5b336001600160a01b03821614806106aa57506106aa8133610430565b61071c5760405162461bcd60e51b815260206004820152603e60248201527f4552433732313a20617070726f76652063616c6c6572206973206e6f7420746f60448201527f6b656e206f776e6572206e6f7220617070726f76656420666f7220616c6c00006064820152608401610685565b6107268383611192565b505050565b610736335b82611200565b6107995760405162461bcd60e51b815260206004820152602e60248201527f4552433732313a2063616c6c6572206973206e6f7420746f6b656e206f776e6560448201526d1c881b9bdc88185c1c1c9bdd995960921b6064820152608401610685565b61072683838361127f565b306001600160a01b037f00000000000000000000000000000000000000000000000000000000000000001614156108325760405162461bcd60e51b815260206004820152602c60248201527f46756e6374696f6e206d7573742062652063616c6c6564207468726f7567682060448201526b19195b1959d85d1958d85b1b60a21b6064820152608401610685565b7f00000000000000000000000000000000000000000000000000000000000000006001600160a01b031661088d7f360894a13ba1a3210667c828492db98dca3e2076cc3735a920a3ca505d382bbc546001600160a01b031690565b6001600160a01b0316146108f85760405162461bcd60e51b815260206004820152602c60248201527f46756e6374696f6e206d7573742062652063616c6c6564207468726f7567682060448201526b6163746976652070726f787960a01b6064820152608401610685565b6109018161144c565b6040805160008082526020820190925261091d91839190611454565b50565b61072683838360405180602001604052806000815250610d0f565b61094433610730565b6109a75760405162461bcd60e51b815260206004820152602e60248201527f4552433732313a2063616c6c6572206973206e6f7420746f6b656e206f776e6560448201526d1c881b9bdc88185c1c1c9bdd995960921b6064820152608401610685565b61091d81611603565b306001600160a01b037f0000000000000000000000000000000000000000000000000000000000000000161415610a3e5760405162461bcd60e51b815260206004820152602c60248201527f46756e6374696f6e206d7573742062652063616c6c6564207468726f7567682060448201526b19195b1959d85d1958d85b1b60a21b6064820152608401610685565b7f00000000000000000000000000000000000000000000000000000000000000006001600160a01b0316610a997f360894a13ba1a3210667c828492db98dca3e2076cc3735a920a3ca505d382bbc546001600160a01b031690565b6001600160a01b031614610b045760405162461bcd60e51b815260206004820152602c60248201527f46756e6374696f6e206d7573742062652063616c6c6564207468726f7567682060448201526b6163746976652070726f787960a01b6064820152608401610685565b610b0d8261144c565b610b1982826001611454565b5050565b6000306001600160a01b037f00000000000000000000000000000000000000000000000000000000000000001614610bbd5760405162461bcd60e51b815260206004820152603860248201527f555550535570677261646561626c653a206d757374206e6f742062652063616c60448201527f6c6564207468726f7567682064656c656761746563616c6c00000000000000006064820152608401610685565b507f360894a13ba1a3210667c828492db98dca3e2076cc3735a920a3ca505d382bbc90565b6000818152606760205260408120546001600160a01b0316806105355760405162461bcd60e51b815260206004820152601860248201527f4552433732313a20696e76616c696420746f6b656e20494400000000000000006044820152606401610685565b60006001600160a01b038216610cc55760405162461bcd60e51b815260206004820152602960248201527f4552433732313a2061646472657373207a65726f206973206e6f74206120766160448201527f6c6964206f776e657200000000000000000000000000000000000000000000006064820152608401610685565b506001600160a01b031660009081526068602052604090205490565b610ce961160c565b610cf36000611666565b565b60606066805461054a906128b6565b610b193383836116b8565b610d193383611200565b610d7c5760405162461bcd60e51b815260206004820152602e60248201527f4552433732313a2063616c6c6572206973206e6f7420746f6b656e206f776e6560448201526d1c881b9bdc88185c1c1c9bdd995960921b6064820152608401610685565b610d8884848484611787565b50505050565b600054610100900460ff1615808015610dae5750600054600160ff909116105b80610dc85750303b158015610dc8575060005460ff166001145b610e3a5760405162461bcd60e51b815260206004820152602e60248201527f496e697469616c697a61626c653a20636f6e747261637420697320616c72656160448201527f647920696e697469616c697a65640000000000000000000000000000000000006064820152608401610685565b6000805460ff191660011790558015610e5d576000805461ff0019166101001790555b610ed16040518060400160405280600881526020017f546865546f6b656e0000000000000000000000000000000000000000000000008152506040518060400160405280600381526020017f494f550000000000000000000000000000000000000000000000000000000000815250611805565b610ed961187a565b610ee161187a565b610ee96118e5565b610ef161187a565b61019280546001600160a01b0319166001600160a01b0384161790558015610b19576000805461ff0019169055604051600181527f7f26b83ff96e1f2b6a682f133852f6798a09c465da95921460cefb38474024989060200160405180910390a15050565b606061053582611958565b610f6961160c565b6001600160a01b038116610fe55760405162461bcd60e51b815260206004820152602660248201527f4f776e61626c653a206e6577206f776e657220697320746865207a65726f206160448201527f64647265737300000000000000000000000000000000000000000000000000006064820152608401610685565b61091d81611666565b6000610ff861160c565b610192546040517f7cb048d60000000000000000000000000000000000000000000000000000000081526001600160a01b03909116906000908290637cb048d690611047908790600401612967565b60206040518083038186803b15801561105f57600080fd5b505afa158015611073573d6000803e3d6000fd5b505050506040513d601f19601f8201168201806040525081019061109791906129e7565b90506001600160a01b03811633146110f15760405162461bcd60e51b815260206004820152601360248201527f4e6f7420796f7572207369676e617475726521000000000000000000000000006044820152606401610685565b60006110fd6101915490565b905061110e61019180546001019055565b6111188782611a61565b6111228187611a7b565b925050505b9392505050565b6000818152606760205260409020546001600160a01b031661091d5760405162461bcd60e51b815260206004820152601860248201527f4552433732313a20696e76616c696420746f6b656e20494400000000000000006044820152606401610685565b600081815260696020526040902080546001600160a01b0319166001600160a01b03841690811790915581906111c782610be2565b6001600160a01b03167f8c5be1e5ebec7d5bd14f71427d1e84f3dd0314c0f7b2291e5b200ac8c7c3b92560405160405180910390a45050565b60008061120c83610be2565b9050806001600160a01b0316846001600160a01b0316148061125357506001600160a01b038082166000908152606a602090815260408083209388168352929052205460ff165b806112775750836001600160a01b031661126c846105cd565b6001600160a01b0316145b949350505050565b826001600160a01b031661129282610be2565b6001600160a01b03161461130e5760405162461bcd60e51b815260206004820152602560248201527f4552433732313a207472616e736665722066726f6d20696e636f72726563742060448201527f6f776e65720000000000000000000000000000000000000000000000000000006064820152608401610685565b6001600160a01b0382166113895760405162461bcd60e51b8152602060048201526024808201527f4552433732313a207472616e7366657220746f20746865207a65726f2061646460448201527f72657373000000000000000000000000000000000000000000000000000000006064820152608401610685565b611394600082611192565b6001600160a01b03831660009081526068602052604081208054600192906113bd908490612a1a565b90915550506001600160a01b03821660009081526068602052604081208054600192906113eb908490612a31565b909155505060008181526067602052604080822080546001600160a01b0319166001600160a01b0386811691821790925591518493918716917fddf252ad1be2c89b69c2b068fc378daa952ba7f163c4a11628f55a4df523b3ef91a4505050565b61091d61160c565b7f4910fdfa16fed3260ed0e7147f7cc6da11a60208b5b9406d12a635614ffd91435460ff16156114875761072683611b24565b826001600160a01b03166352d1902d6040518163ffffffff1660e01b815260040160206040518083038186803b1580156114c057600080fd5b505afa9250505080156114f0575060408051601f3d908101601f191682019092526114ed91810190612a49565b60015b6115625760405162461bcd60e51b815260206004820152602e60248201527f45524331393637557067726164653a206e657720696d706c656d656e7461746960448201527f6f6e206973206e6f7420555550530000000000000000000000000000000000006064820152608401610685565b7f360894a13ba1a3210667c828492db98dca3e2076cc3735a920a3ca505d382bbc81146115f75760405162461bcd60e51b815260206004820152602960248201527f45524331393637557067726164653a20756e737570706f727465642070726f7860448201527f6961626c655555494400000000000000000000000000000000000000000000006064820152608401610685565b50610726838383611be2565b61091d81611c07565b60fb546001600160a01b03163314610cf35760405162461bcd60e51b815260206004820181905260248201527f4f776e61626c653a2063616c6c6572206973206e6f7420746865206f776e65726044820152606401610685565b60fb80546001600160a01b038381166001600160a01b0319831681179093556040519116919082907f8be0079c531659141344cd1fd0a4f28419497f9722a3daafe3b4186f6b6457e090600090a35050565b816001600160a01b0316836001600160a01b0316141561171a5760405162461bcd60e51b815260206004820152601960248201527f4552433732313a20617070726f766520746f2063616c6c6572000000000000006044820152606401610685565b6001600160a01b038381166000818152606a6020908152604080832094871680845294825291829020805460ff191686151590811790915591519182527f17307eab39ab6107e8899845ad3d59bd9653f200f220920489ca2b5937696c31910160405180910390a3505050565b61179284848461127f565b61179e84848484611c47565b610d885760405162461bcd60e51b815260206004820152603260248201527f4552433732313a207472616e7366657220746f206e6f6e20455243373231526560448201527131b2b4bb32b91034b6b83632b6b2b73a32b960711b6064820152608401610685565b600054610100900460ff166118705760405162461bcd60e51b815260206004820152602b60248201527f496e697469616c697a61626c653a20636f6e7472616374206973206e6f74206960448201526a6e697469616c697a696e6760a81b6064820152608401610685565b610b198282611d9f565b600054610100900460ff16610cf35760405162461bcd60e51b815260206004820152602b60248201527f496e697469616c697a61626c653a20636f6e7472616374206973206e6f74206960448201526a6e697469616c697a696e6760a81b6064820152608401610685565b600054610100900460ff166119505760405162461bcd60e51b815260206004820152602b60248201527f496e697469616c697a61626c653a20636f6e7472616374206973206e6f74206960448201526a6e697469616c697a696e6760a81b6064820152608401610685565b610cf3611e31565b60606119638261112e565b6000828152609760205260408120805461197c906128b6565b80601f01602080910402602001604051908101604052809291908181526020018280546119a8906128b6565b80156119f55780601f106119ca576101008083540402835291602001916119f5565b820191906000526020600020905b8154815290600101906020018083116119d857829003601f168201915b505050505090506000611a1360408051602081019091526000815290565b9050805160001415611a26575092915050565b815115611a58578082604051602001611a40929190612a62565b60405160208183030381529060405292505050919050565b61127784611ea5565b610b19828260405180602001604052806000815250611f18565b6000828152606760205260409020546001600160a01b0316611b055760405162461bcd60e51b815260206004820152602e60248201527f45524337323155524953746f726167653a2055524920736574206f66206e6f6e60448201527f6578697374656e7420746f6b656e0000000000000000000000000000000000006064820152608401610685565b6000828152609760209081526040909120825161072692840190612429565b6001600160a01b0381163b611ba15760405162461bcd60e51b815260206004820152602d60248201527f455243313936373a206e657720696d706c656d656e746174696f6e206973206e60448201527f6f74206120636f6e7472616374000000000000000000000000000000000000006064820152608401610685565b7f360894a13ba1a3210667c828492db98dca3e2076cc3735a920a3ca505d382bbc80546001600160a01b0319166001600160a01b0392909216919091179055565b611beb83611f96565b600082511180611bf85750805b1561072657610d888383611fd6565b611c10816120e1565b60008181526097602052604090208054611c29906128b6565b15905061091d57600081815260976020526040812061091d916124ad565b60006001600160a01b0384163b15611d9457604051630a85bd0160e11b81526001600160a01b0385169063150b7a0290611c8b903390899088908890600401612a91565b602060405180830381600087803b158015611ca557600080fd5b505af1925050508015611cd5575060408051601f3d908101601f19168201909252611cd291810190612ac3565b60015b611d7a573d808015611d03576040519150601f19603f3d011682016040523d82523d6000602084013e611d08565b606091505b508051611d725760405162461bcd60e51b815260206004820152603260248201527f4552433732313a207472616e7366657220746f206e6f6e20455243373231526560448201527131b2b4bb32b91034b6b83632b6b2b73a32b960711b6064820152608401610685565b805181602001fd5b6001600160e01b031916630a85bd0160e11b149050611277565b506001949350505050565b600054610100900460ff16611e0a5760405162461bcd60e51b815260206004820152602b60248201527f496e697469616c697a61626c653a20636f6e7472616374206973206e6f74206960448201526a6e697469616c697a696e6760a81b6064820152608401610685565b8151611e1d906065906020850190612429565b508051610726906066906020840190612429565b600054610100900460ff16611e9c5760405162461bcd60e51b815260206004820152602b60248201527f496e697469616c697a61626c653a20636f6e7472616374206973206e6f74206960448201526a6e697469616c697a696e6760a81b6064820152608401610685565b610cf333611666565b6060611eb08261112e565b6000611ec760408051602081019091526000815290565b90506000815111611ee75760405180602001604052806000815250611127565b80611ef18461217c565b604051602001611f02929190612a62565b6040516020818303038152906040529392505050565b611f2283836122ae565b611f2f6000848484611c47565b6107265760405162461bcd60e51b815260206004820152603260248201527f4552433732313a207472616e7366657220746f206e6f6e20455243373231526560448201527131b2b4bb32b91034b6b83632b6b2b73a32b960711b6064820152608401610685565b611f9f81611b24565b6040516001600160a01b038216907fbc7cd75a20ee27fd9adebab32041f755214dbc6bffa90cc0225b39da2e5c2d3b90600090a250565b60606001600160a01b0383163b6120555760405162461bcd60e51b815260206004820152602660248201527f416464726573733a2064656c65676174652063616c6c20746f206e6f6e2d636f60448201527f6e747261637400000000000000000000000000000000000000000000000000006064820152608401610685565b600080846001600160a01b0316846040516120709190612ae0565b600060405180830381855af49150503d80600081146120ab576040519150601f19603f3d011682016040523d82523d6000602084013e6120b0565b606091505b50915091506120d88282604051806060016040528060278152602001612b6c602791396123f0565b95945050505050565b60006120ec82610be2565b90506120f9600083611192565b6001600160a01b0381166000908152606860205260408120805460019290612122908490612a1a565b909155505060008281526067602052604080822080546001600160a01b0319169055518391906001600160a01b038416907fddf252ad1be2c89b69c2b068fc378daa952ba7f163c4a11628f55a4df523b3ef908390a45050565b6060816121bc57505060408051808201909152600181527f3000000000000000000000000000000000000000000000000000000000000000602082015290565b8160005b81156121e657806121d081612afc565b91506121df9050600a83612b2d565b91506121c0565b60008167ffffffffffffffff8111156122015761220161264e565b6040519080825280601f01601f19166020018201604052801561222b576020820181803683370190505b5090505b841561127757612240600183612a1a565b915061224d600a86612b41565b612258906030612a31565b60f81b81838151811061226d5761226d612b55565b60200101907effffffffffffffffffffffffffffffffffffffffffffffffffffffffffffff1916908160001a9053506122a7600a86612b2d565b945061222f565b6001600160a01b0382166123045760405162461bcd60e51b815260206004820181905260248201527f4552433732313a206d696e7420746f20746865207a65726f20616464726573736044820152606401610685565b6000818152606760205260409020546001600160a01b0316156123695760405162461bcd60e51b815260206004820152601c60248201527f4552433732313a20746f6b656e20616c7265616479206d696e746564000000006044820152606401610685565b6001600160a01b0382166000908152606860205260408120805460019290612392908490612a31565b909155505060008181526067602052604080822080546001600160a01b0319166001600160a01b03861690811790915590518392907fddf252ad1be2c89b69c2b068fc378daa952ba7f163c4a11628f55a4df523b3ef908290a45050565b606083156123ff575081611127565b82511561240f5782518084602001fd5b8160405162461bcd60e51b81526004016106859190612583565b828054612435906128b6565b90600052602060002090601f016020900481019282612457576000855561249d565b82601f1061247057805160ff191683800117855561249d565b8280016001018555821561249d579182015b8281111561249d578251825591602001919060010190612482565b506124a99291506124e3565b5090565b5080546124b9906128b6565b6000825580601f106124c9575050565b601f01602090049060005260206000209081019061091d91905b5b808211156124a957600081556001016124e4565b6001600160e01b03198116811461091d57600080fd5b60006020828403121561252057600080fd5b8135611127816124f8565b60005b8381101561254657818101518382015260200161252e565b83811115610d885750506000910152565b6000815180845261256f81602086016020860161252b565b601f01601f19169290920160200192915050565b6020815260006111276020830184612557565b6000602082840312156125a857600080fd5b5035919050565b6001600160a01b038116811461091d57600080fd5b600080604083850312156125d757600080fd5b82356125e2816125af565b946020939093013593505050565b60008060006060848603121561260557600080fd5b8335612610816125af565b92506020840135612620816125af565b929592945050506040919091013590565b60006020828403121561264357600080fd5b8135611127816125af565b634e487b7160e01b600052604160045260246000fd5b600067ffffffffffffffff8084111561267f5761267f61264e565b604051601f8501601f19908116603f011681019082821181831017156126a7576126a761264e565b816040528093508581528686860111156126c057600080fd5b858560208301376000602087830101525050509392505050565b600082601f8301126126eb57600080fd5b61112783833560208501612664565b6000806040838503121561270d57600080fd5b8235612718816125af565b9150602083013567ffffffffffffffff81111561273457600080fd5b612740858286016126da565b9150509250929050565b6000806040838503121561275d57600080fd5b8235612768816125af565b91506020830135801515811461277d57600080fd5b809150509250929050565b6000806000806080858703121561279e57600080fd5b84356127a9816125af565b935060208501356127b9816125af565b925060408501359150606085013567ffffffffffffffff8111156127dc57600080fd5b6127e8878288016126da565b91505092959194509250565b6000806040838503121561280757600080fd5b8235612812816125af565b9150602083013561277d816125af565b60008060006060848603121561283757600080fd5b8335612842816125af565b9250602084013567ffffffffffffffff8082111561285f57600080fd5b818601915086601f83011261287357600080fd5b61288287833560208501612664565b9350604086013591508082111561289857600080fd5b508401606081870312156128ab57600080fd5b809150509250925092565b600181811c908216806128ca57607f821691505b602082108114156128eb57634e487b7160e01b600052602260045260246000fd5b50919050565b6000808335601e1984360301811261290857600080fd5b830160208101925035905067ffffffffffffffff81111561292857600080fd5b80360383131561293757600080fd5b9250929050565b81835281816020850137506000828201602090810191909152601f909101601f19169091010190565b60208152600061297783846128f1565b6060602085015261298c60808501828461293e565b91505061299c60208501856128f1565b601f19808685030160408701526129b484838561293e565b93506129c360408801886128f1565b9350915080868503016060870152506129dd83838361293e565b9695505050505050565b6000602082840312156129f957600080fd5b8151611127816125af565b634e487b7160e01b600052601160045260246000fd5b600082821015612a2c57612a2c612a04565b500390565b60008219821115612a4457612a44612a04565b500190565b600060208284031215612a5b57600080fd5b5051919050565b60008351612a7481846020880161252b565b835190830190612a8881836020880161252b565b01949350505050565b60006001600160a01b038087168352808616602084015250836040830152608060608301526129dd6080830184612557565b600060208284031215612ad557600080fd5b8151611127816124f8565b60008251612af281846020870161252b565b9190910192915050565b6000600019821415612b1057612b10612a04565b5060010190565b634e487b7160e01b600052601260045260246000fd5b600082612b3c57612b3c612b17565b500490565b600082612b5057612b50612b17565b500690565b634e487b7160e01b600052603260045260246000fdfe416464726573733a206c6f772d6c6576656c2064656c65676174652063616c6c206661696c6564a26469706673582212205113f533e1fea8a843f06c6ada8e1820614ca101ac18cc5724f9624188498ce364736f6c63430008090033",
  "linkReferences": {},
  "deployedLinkReferences": {}
}