{
  "_format": "hh-sol-artifact-1",
  "contractName": "IOU",
  "sourceName": "contracts/IOU.sol",
  "abi": [
    {
      "inputs": [],
      "stateMutability": "nonpayable",
      "type": "constructor"
    },
    {
      "anonymous": false,
      "inputs": [
        {
          "indexed": false,
          "internalType": "address",
          "name": "previousAdmin",
          "type": "address"
        },
        {
          "indexed": false,
          "internalType": "address",
          "name": "newAdmin",
          "type": "address"
        }
      ],
      "name": "AdminChanged",
      "type": "event"
    },
    {
      "anonymous": false,
      "inputs": [
        {
          "indexed": true,
          "internalType": "address",
          "name": "beacon",
          "type": "address"
        }
      ],
      "name": "BeaconUpgraded",
      "type": "event"
    },
    {
      "anonymous": false,
      "inputs": [
        {
          "indexed": false,
          "internalType": "uint8",
          "name": "version",
          "type": "uint8"
        }
      ],
      "name": "Initialized",
      "type": "event"
    },
    {
      "anonymous": false,
      "inputs": [
        {
          "indexed": true,
          "internalType": "address",
          "name": "previousOwner",
          "type": "address"
        },
        {
          "indexed": true,
          "internalType": "address",
          "name": "newOwner",
          "type": "address"
        }
      ],
      "name": "OwnershipTransferred",
      "type": "event"
    },
    {
      "anonymous": false,
      "inputs": [
        {
          "indexed": true,
          "internalType": "address",
          "name": "implementation",
          "type": "address"
        }
      ],
      "name": "Upgraded",
      "type": "event"
    },
    {
      "inputs": [
        {
          "internalType": "uint256",
          "name": "tokenId",
          "type": "uint256"
        },
        {
          "internalType": "address",
          "name": "newAddress",
          "type": "address"
        }
      ],
      "name": "authorizeNewDetroyer",
      "outputs": [],
      "stateMutability": "nonpayable",
      "type": "function"
    },
    {
      "inputs": [
        {
          "internalType": "uint256",
          "name": "",
          "type": "uint256"
        },
        {
          "internalType": "uint256",
          "name": "",
          "type": "uint256"
        }
      ],
      "name": "authurizedByToken",
      "outputs": [
        {
          "internalType": "address",
          "name": "",
          "type": "address"
        }
      ],
      "stateMutability": "view",
      "type": "function"
    },
    {
      "inputs": [
        {
          "internalType": "address",
          "name": "",
          "type": "address"
        }
      ],
      "name": "bondByAddress",
      "outputs": [
        {
          "internalType": "uint256",
          "name": "_startTimer",
          "type": "uint256"
        },
        {
          "internalType": "uint256",
          "name": "_dueDate",
          "type": "uint256"
        },
        {
          "internalType": "address",
          "name": "_borrower",
          "type": "address"
        },
        {
          "internalType": "address",
          "name": "_lender",
          "type": "address"
        },
        {
          "internalType": "uint256",
          "name": "_owedAmount",
          "type": "uint256"
        },
        {
          "internalType": "address",
          "name": "_tokenContract",
          "type": "address"
        }
      ],
      "stateMutability": "view",
      "type": "function"
    },
    {
      "inputs": [],
      "name": "initialize",
      "outputs": [],
      "stateMutability": "nonpayable",
      "type": "function"
    },
    {
      "inputs": [
        {
          "internalType": "uint256",
          "name": "_dueDate",
          "type": "uint256"
        },
        {
          "internalType": "address",
          "name": "_borrower",
          "type": "address"
        },
        {
          "internalType": "address",
          "name": "_lender",
          "type": "address"
        },
        {
          "internalType": "uint256",
          "name": "_owedAmount",
          "type": "uint256"
        },
        {
          "internalType": "address",
          "name": "_tokenContract",
          "type": "address"
        }
      ],
      "name": "makeBond",
      "outputs": [
        {
          "internalType": "uint256",
          "name": "",
          "type": "uint256"
        }
      ],
      "stateMutability": "nonpayable",
      "type": "function"
    },
    {
      "inputs": [],
      "name": "owing",
      "outputs": [
        {
          "internalType": "uint256",
          "name": "",
          "type": "uint256"
        }
      ],
      "stateMutability": "view",
      "type": "function"
    },
    {
      "inputs": [],
      "name": "owner",
      "outputs": [
        {
          "internalType": "address",
          "name": "",
          "type": "address"
        }
      ],
      "stateMutability": "view",
      "type": "function"
    },
    {
      "inputs": [],
      "name": "proxiableUUID",
      "outputs": [
        {
          "internalType": "bytes32",
          "name": "",
          "type": "bytes32"
        }
      ],
      "stateMutability": "view",
      "type": "function"
    },
    {
      "inputs": [],
      "name": "renounceOwnership",
      "outputs": [],
      "stateMutability": "nonpayable",
      "type": "function"
    },
    {
      "inputs": [
        {
          "internalType": "address",
          "name": "newOwner",
          "type": "address"
        }
      ],
      "name": "transferOwnership",
      "outputs": [],
      "stateMutability": "nonpayable",
      "type": "function"
    },
    {
      "inputs": [
        {
          "internalType": "address",
          "name": "newImplementation",
          "type": "address"
        }
      ],
      "name": "upgradeTo",
      "outputs": [],
      "stateMutability": "nonpayable",
      "type": "function"
    },
    {
      "inputs": [
        {
          "internalType": "address",
          "name": "newImplementation",
          "type": "address"
        },
        {
          "internalType": "bytes",
          "name": "data",
          "type": "bytes"
        }
      ],
      "name": "upgradeToAndCall",
      "outputs": [],
      "stateMutability": "payable",
      "type": "function"
    }
  ],
  "bytecode": "0x60a06040523060805234801561001457600080fd5b5061001d610022565b6100e2565b600054610100900460ff161561008e5760405162461bcd60e51b815260206004820152602760248201527f496e697469616c697a61626c653a20636f6e747261637420697320696e697469604482015266616c697a696e6760c81b606482015260840160405180910390fd5b60005460ff90811610156100e0576000805460ff191660ff9081179091556040519081527f7f26b83ff96e1f2b6a682f133852f6798a09c465da95921460cefb38474024989060200160405180910390a15b565b6080516114f5610119600039600081816102fa015281816103840152818161047b0152818161050001526105ea01526114f56000f3fe6080604052600436106100c75760003560e01c8063715018a6116100745780638da5cb5b1161004e5780638da5cb5b14610264578063ee3a0f5214610282578063f2fde38b1461029757600080fd5b8063715018a61461021a5780638129fc1c1461022f5780638cdbe9f71461024457600080fd5b80634f1ef286116100a55780634f1ef286146101c457806352d1902d146101d75780636fc69052146101fa57600080fd5b806323a6872f146100cc5780633659cfe6146101095780634b3d031f1461012b575b600080fd5b3480156100d857600080fd5b506100ec6100e7366004611237565b6102b7565b6040516001600160a01b0390911681526020015b60405180910390f35b34801561011557600080fd5b50610129610124366004611275565b6102ef565b005b34801561013757600080fd5b50610188610146366004611275565b60ca60205260009081526040902080546001820154600283015460038401546004850154600590950154939492936001600160a01b0392831693918316921686565b6040805196875260208701959095526001600160a01b0393841694860194909452908216606085015260808401521660a082015260c001610100565b6101296101d23660046112bf565b610470565b3480156101e357600080fd5b506101ec6105dd565b604051908152602001610100565b34801561020657600080fd5b50610129610215366004611381565b6106a2565b34801561022657600080fd5b5061012961073b565b34801561023b57600080fd5b5061012961074f565b34801561025057600080fd5b506101ec61025f3660046113ad565b610876565b34801561027057600080fd5b506033546001600160a01b03166100ec565b34801561028e57600080fd5b506101ec610ace565b3480156102a357600080fd5b506101296102b2366004611275565b610b02565b60c960205281600052604060002081815481106102d357600080fd5b6000918252602090912001546001600160a01b03169150829050565b306001600160a01b037f00000000000000000000000000000000000000000000000000000000000000001614156103825760405162461bcd60e51b815260206004820152602c60248201527f46756e6374696f6e206d7573742062652063616c6c6564207468726f7567682060448201526b19195b1959d85d1958d85b1b60a21b60648201526084015b60405180910390fd5b7f00000000000000000000000000000000000000000000000000000000000000006001600160a01b03166103dd7f360894a13ba1a3210667c828492db98dca3e2076cc3735a920a3ca505d382bbc546001600160a01b031690565b6001600160a01b0316146104485760405162461bcd60e51b815260206004820152602c60248201527f46756e6374696f6e206d7573742062652063616c6c6564207468726f7567682060448201526b6163746976652070726f787960a01b6064820152608401610379565b61045181610b8f565b6040805160008082526020820190925261046d91839190610b97565b50565b306001600160a01b037f00000000000000000000000000000000000000000000000000000000000000001614156104fe5760405162461bcd60e51b815260206004820152602c60248201527f46756e6374696f6e206d7573742062652063616c6c6564207468726f7567682060448201526b19195b1959d85d1958d85b1b60a21b6064820152608401610379565b7f00000000000000000000000000000000000000000000000000000000000000006001600160a01b03166105597f360894a13ba1a3210667c828492db98dca3e2076cc3735a920a3ca505d382bbc546001600160a01b031690565b6001600160a01b0316146105c45760405162461bcd60e51b815260206004820152602c60248201527f46756e6374696f6e206d7573742062652063616c6c6564207468726f7567682060448201526b6163746976652070726f787960a01b6064820152608401610379565b6105cd82610b8f565b6105d982826001610b97565b5050565b6000306001600160a01b037f0000000000000000000000000000000000000000000000000000000000000000161461067d5760405162461bcd60e51b815260206004820152603860248201527f555550535570677261646561626c653a206d757374206e6f742062652063616c60448201527f6c6564207468726f7567682064656c656761746563616c6c00000000000000006064820152608401610379565b507f360894a13ba1a3210667c828492db98dca3e2076cc3735a920a3ca505d382bbc90565b33600090815260ca60205260409020600181015442116107045760405162461bcd60e51b815260206004820152601060248201527f426f6e64206973204578706972656421000000000000000000000000000000006044820152606401610379565b6006018054600181018255600091825260209091200180546001600160a01b0319166001600160a01b039290921691909117905550565b610743610d4b565b61074d6000610da5565b565b600054610100900460ff161580801561076f5750600054600160ff909116105b806107895750303b158015610789575060005460ff166001145b6107fb5760405162461bcd60e51b815260206004820152602e60248201527f496e697469616c697a61626c653a20636f6e747261637420697320616c72656160448201527f647920696e697469616c697a65640000000000000000000000000000000000006064820152608401610379565b6000805460ff19166001179055801561081e576000805461ff0019166101001790555b610826610df7565b61082e610e6a565b801561046d576000805461ff0019169055604051600181527f7f26b83ff96e1f2b6a682f133852f6798a09c465da95921460cefb38474024989060200160405180910390a150565b600081816001600160a01b0382166384f0199233604080517fffffffff0000000000000000000000000000000000000000000000000000000060e085901b1681526001600160a01b0390921660048301526024820152600860448201527f746f6b656e5552490000000000000000000000000000000000000000000000006064820152608401602060405180830381600087803b15801561091657600080fd5b505af115801561092a573d6000803e3d6000fd5b505050506040513d601f19601f8201168201806040525081019061094e9190611404565b600081815260c96020908152604080832080546001810182558185529383902090930180546001600160a01b0319166001600160a01b038c8116918217909255825160e0810184524281528085018f90528d8316818501526060810191909152608081018b905290891660a08201528354825181850281018501909352808352949550929360c0840192859190830182828015610a1457602002820191906000526020600020905b81546001600160a01b031681526001909101906020018083116109f6575b505050505081525060ca6000610a273390565b6001600160a01b039081168252602080830193909352604091820160002084518155848401516001820155918401516002830180549183166001600160a01b031992831617905560608501516003840180549184169183169190911790556080850151600484015560a085015160058401805491909316911617905560c083015180519192610abe926006850192909101906111bd565b50929a9950505050505050505050565b33600081815260ca602052604081206002810154919290916001600160a01b031614610af957600080fd5b60040154919050565b610b0a610d4b565b6001600160a01b038116610b865760405162461bcd60e51b815260206004820152602660248201527f4f776e61626c653a206e6577206f776e657220697320746865207a65726f206160448201527f64647265737300000000000000000000000000000000000000000000000000006064820152608401610379565b61046d81610da5565b61046d610d4b565b7f4910fdfa16fed3260ed0e7147f7cc6da11a60208b5b9406d12a635614ffd91435460ff1615610bcf57610bca83610ed5565b505050565b826001600160a01b03166352d1902d6040518163ffffffff1660e01b815260040160206040518083038186803b158015610c0857600080fd5b505afa925050508015610c38575060408051601f3d908101601f19168201909252610c3591810190611404565b60015b610caa5760405162461bcd60e51b815260206004820152602e60248201527f45524331393637557067726164653a206e657720696d706c656d656e7461746960448201527f6f6e206973206e6f7420555550530000000000000000000000000000000000006064820152608401610379565b7f360894a13ba1a3210667c828492db98dca3e2076cc3735a920a3ca505d382bbc8114610d3f5760405162461bcd60e51b815260206004820152602960248201527f45524331393637557067726164653a20756e737570706f727465642070726f7860448201527f6961626c655555494400000000000000000000000000000000000000000000006064820152608401610379565b50610bca838383610f93565b6033546001600160a01b0316331461074d5760405162461bcd60e51b815260206004820181905260248201527f4f776e61626c653a2063616c6c6572206973206e6f7420746865206f776e65726044820152606401610379565b603380546001600160a01b038381166001600160a01b0319831681179093556040519116919082907f8be0079c531659141344cd1fd0a4f28419497f9722a3daafe3b4186f6b6457e090600090a35050565b600054610100900460ff16610e625760405162461bcd60e51b815260206004820152602b60248201527f496e697469616c697a61626c653a20636f6e7472616374206973206e6f74206960448201526a6e697469616c697a696e6760a81b6064820152608401610379565b61074d610fbe565b600054610100900460ff1661074d5760405162461bcd60e51b815260206004820152602b60248201527f496e697469616c697a61626c653a20636f6e7472616374206973206e6f74206960448201526a6e697469616c697a696e6760a81b6064820152608401610379565b6001600160a01b0381163b610f525760405162461bcd60e51b815260206004820152602d60248201527f455243313936373a206e657720696d706c656d656e746174696f6e206973206e60448201527f6f74206120636f6e7472616374000000000000000000000000000000000000006064820152608401610379565b7f360894a13ba1a3210667c828492db98dca3e2076cc3735a920a3ca505d382bbc80546001600160a01b0319166001600160a01b0392909216919091179055565b610f9c83611032565b600082511180610fa95750805b15610bca57610fb88383611072565b50505050565b600054610100900460ff166110295760405162461bcd60e51b815260206004820152602b60248201527f496e697469616c697a61626c653a20636f6e7472616374206973206e6f74206960448201526a6e697469616c697a696e6760a81b6064820152608401610379565b61074d33610da5565b61103b81610ed5565b6040516001600160a01b038216907fbc7cd75a20ee27fd9adebab32041f755214dbc6bffa90cc0225b39da2e5c2d3b90600090a250565b60606001600160a01b0383163b6110f15760405162461bcd60e51b815260206004820152602660248201527f416464726573733a2064656c65676174652063616c6c20746f206e6f6e2d636f60448201527f6e747261637400000000000000000000000000000000000000000000000000006064820152608401610379565b600080846001600160a01b03168460405161110c9190611449565b600060405180830381855af49150503d8060008114611147576040519150601f19603f3d011682016040523d82523d6000602084013e61114c565b606091505b509150915061117482826040518060600160405280602781526020016114996027913961117d565b95945050505050565b6060831561118c5750816111b6565b82511561119c5782518084602001fd5b8160405162461bcd60e51b81526004016103799190611465565b9392505050565b828054828255906000526020600020908101928215611212579160200282015b8281111561121257825182546001600160a01b0319166001600160a01b039091161782556020909201916001909101906111dd565b5061121e929150611222565b5090565b5b8082111561121e5760008155600101611223565b6000806040838503121561124a57600080fd5b50508035926020909101359150565b80356001600160a01b038116811461127057600080fd5b919050565b60006020828403121561128757600080fd5b6111b682611259565b7f4e487b7100000000000000000000000000000000000000000000000000000000600052604160045260246000fd5b600080604083850312156112d257600080fd5b6112db83611259565b9150602083013567ffffffffffffffff808211156112f857600080fd5b818501915085601f83011261130c57600080fd5b81358181111561131e5761131e611290565b604051601f8201601f19908116603f0116810190838211818310171561134657611346611290565b8160405282815288602084870101111561135f57600080fd5b8260208601602083013760006020848301015280955050505050509250929050565b6000806040838503121561139457600080fd5b823591506113a460208401611259565b90509250929050565b600080600080600060a086880312156113c557600080fd5b853594506113d560208701611259565b93506113e360408701611259565b9250606086013591506113f860808701611259565b90509295509295909350565b60006020828403121561141657600080fd5b5051919050565b60005b83811015611438578181015183820152602001611420565b83811115610fb85750506000910152565b6000825161145b81846020870161141d565b9190910192915050565b602081526000825180602084015261148481604085016020870161141d565b601f01601f1916919091016040019291505056fe416464726573733a206c6f772d6c6576656c2064656c65676174652063616c6c206661696c6564a264697066735822122075b8808cc8fbbd83a57fe4d0c2347a2192831252463d9afb4b58019000a8623a64736f6c63430008090033",
  "linkReferences": {},
  "deployedLinkReferences": {}
}